:100000000C9419010C9441010C9441010C94C40509
:100010000C94C4050C94C4050C9441010C9441014A
:100020000C9441010C9441010C9441010C94410148
:100030000C9441010C9441010C9441010C94410138
:100040000C949F030C9441010C9492050C946C0544
:100050000C9441010C9441010C9441010C94410118
:100060000C9441010C9441015D0B6F0B720B790BE9
:10007000800BAE0BB50BC20BCF0BDB0BDB0BDB0B23
:10008000DB0BDB0BDB0BDB0BDB0BDB0BDB0BDB0B40
:10009000DB0BDB0BDB0BDB0BDB0BDB0BDB0BDB0B30
:1000A000DB0BDB0BDB0BDB0B5D0B6A0B6F0B720BE4
:1000B000790B800B870B940BA10B00407A10F35A3D
:1000C00000A0724E18090010A5D4E80000E8764898
:1000D000170000E40B54020000CA9A3B000000E144
:1000E000F505000080969800000040420F000000D7
:1000F000A08601000000102700000000E8030000B7
:1001000000006400000000000A0000000000010080
:10011000000000002C76D888DC674F0823DFC1DFA1
:10012000AE59E1B1B796E5E3E453C63AE6519976A4
:1001300096E8E6C28426EB898C9B62ED407C6FFCDE
:10014000EFBC9C9F40F2BAA56FA5F490055A2AF720
:100150005C936B6CF9676DC11BFCE0E40D47FEF529
:1001600020E6B500D0ED902E030094357705008091
:10017000841E080000204E0A000000C80C333333F0
:10018000330F986E12831141EF8D2114893BE65590
:1001900016CFFEE6DB18D1844B381BF77C1D901D73
:1001A000A4BBE424203284725E228100C9F124ECD5
:1001B000A1E53D274E6F2047505320646574656369
:1001C0007465643A20636865636B20776972696E51
:1001D000672E0000000000240027002A0000000015
:1001E00008000201000003040700000000000000F6
:1001F0000000000000230026002900000000002568
:100200000028002B00040404040404040402020275
:100210000202020303030303030102040810204047
:100220008001020408102001020408102000080EBA
:100230007A0F11241FBECFEFD4E0DEBFCDBF11E097
:10024000A0E0B1E0EAEFF9E202C005900D92A03F14
:10025000B107D9F724E0A0EFB1E001C01D92A133AE
:10026000B207E1F711E0C8E1D1E004C02197FE0137
:100270000E948514C731D107C9F70E94B5070C94B5
:10028000F0140C940000833081F028F4813099F050
:100290008230A1F008958730A9F08830B9F0843019
:1002A000D1F4809180008F7D03C0809180008F7792
:1002B00080938000089584B58F7702C084B58F7DC8
:1002C00084BD08958091B0008F7703C08091B00005
:1002D0008F7D8093B00008953FB7F8948091ED032F
:1002E0009091EE03A091EF03B091F00326B5A89B87
:1002F00005C02F3F19F00196A11DB11D3FBFBA2FB8
:10030000A92F982F8827820F911DA11DB11DBC0117
:10031000CD0143E0660F771F881F991F4A95D1F7DB
:100320000895CF92DF92EF92FF920F931F93CF9396
:10033000DF936C017A018B01C0E0D0E0CE15DF05C0
:1003400081F0D8016D918D01D601ED91FC91019064
:10035000F081E02DC6010995892B11F02196EECF91
:100360007E01C701DF91CF911F910F91FF90EF9018
:10037000DF90CF900895009769F0FC010190002074
:10038000E9F73197AF01481B590BBC018FE792E0A9
:100390000C94910180E090E008958F929F92AF922B
:1003A000BF920F931F93CF93DF93CDB7DEB7A19783
:1003B0000FB6F894DEBF0FBECDBF19A2423008F4CD
:1003C0004AE08E010F5D1F4F842E912CA12CB12C81
:1003D000A50194010E946314E62FB901CA010150DE
:1003E0001109EA3014F4E05D01C0E95CD801EC9336
:1003F000232B242B252B61F7C8010E94BB01A1965A
:100400000FB6F894DEBF0FBECDBFDF91CF911F9125
:100410000F91BF90AF909F908F900895CF93DF93EF
:100420000E94BB01EC0183E591E00E94BB018C0FAF
:100430009D1FDF91CF910895CF92DF92EF92FF92AF
:10044000CF93DF936C01990FEE08FF08F7FE19C0F8
:100450006DE28FE792E00E945104EC016627772756
:10046000CB016C197D098E099F094AE00E94CD01DC
:100470008C0F9D1FDF91CF91FF90EF90DF90CF9079
:1004800008954AE0C701B601DF91CF91FF90EF9048
:10049000DF90CF900C94CD01CF93DF93282F30E0E5
:1004A000F901E352FE4F8491F901E75EFD4FD491CB
:1004B000F901EB5FFD4FC491CC2391F081110E94B3
:1004C0004301EC2FF0E0EE0FFF1FEF50FE4FA59120
:1004D000B491EC91ED2381E090E021F480E002C042
:1004E00080E090E0DF91CF9108951F93CF93DF9349
:1004F000282F30E0F901E352FE4F8491F901E75EC5
:10050000FD4FD491F901EB5FFD4FC491CC23C1F0B5
:10051000162F81110E944301EC2FF0E0EE0FFF1F18
:10052000E550FE4FA591B4919FB7F894111104C006
:100530008C91D095D82302C0EC91DE2BDC939FBF29
:10054000DF91CF911F910895CF93DF9390E0FC014D
:10055000E75EFD4F2491FC01EB5FFD4F8491882302
:1005600061F190E0880F991FFC01ED52FE4FC5919B
:10057000D491FC01E550FE4FA591B491611109C0E1
:100580009FB7F8948881209582238883EC912E234D
:100590000BC0623061F49FB7F8948881322F309598
:1005A00083238883EC912E2B2C939FBF06C08FB79B
:1005B000F894E8812E2B28838FBFDF91CF91089587
:1005C0008F929F92AF92BF92CF92DF92EF92FF9263
:1005D0006B017C010E946C014B015C01C114D104D0
:1005E000E104F104F1F00E946C01DC01CB018819F7
:1005F0009909AA09BB09883E9340A105B10570F38A
:1006000021E0C21AD108E108F10888EE880E83E0E3
:10061000981EA11CB11CC114D104E104F10419F706
:10062000DDCFFF90EF90DF90CF90BF90AF909F9085
:100630008F9008952FB7F8946091E9037091EA03C1
:100640008091EB039091EC032FBF08950F931F93BC
:10065000CF93DF9321E0209357022AE020935802A2
:100660002093590210925A02FC0101900020E9F7F0
:100670003197E81BF90BF39708F05BC08C01BC01C4
:100680008BE592E00E94DA14E80109900020E9F776
:10069000C01BD10B24960E941A038FED91E00E949B
:1006A000BB01CE010E941C0288EE91E00E940E0266
:1006B00081E80E94690760E480E40E94540760E0DA
:1006C0008EE00E94540760E08DE00E945407809104
:1006D000550290915602892B21F46C2F82E20E94E0
:1006E000540760E08AE00E94750280E80E944D078E
:1006F00007E512E0C801875592408C179D0734F436
:10070000F80181918F010E944D07F4CF61E08AE0EA
:100710000E94750283E80E94690782E090E090934E
:1007200054028093530287E592E00E940E0281E01A
:1007300001C080E0DF91CF911F910F9108951F922A
:100740000F920FB60F9211242F933F938F939F9385
:10075000AF93BF938091E9039091EA03A091EB03DB
:10076000B091EC033091E80326E0230F2D3720F4FD
:100770000296A11DB11D05C029E8230F0396A11DF6
:10078000B11D2093E8038093E9039093EA03A093BB
:10079000EB03B093EC038091ED039091EE03A091F5
:1007A000EF03B091F0030196A11DB11D8093ED03FD
:1007B0009093EE03A093EF03B093F003BF91AF913A
:1007C0009F918F913F912F910F900FBE0F901F908F
:1007D0001895FC01538D448D252F30E0842F90E037
:1007E000821B930B541710F0CF960895019708952C
:1007F000FC01918D828D981761F0828DDF01A80F29
:10080000B11D5D968C91928D9F5F9F73928F90E04A
:1008100008958FEF9FEF0895FC01918D828D9817B9
:1008200031F0828DE80FF11D858D90E008958FEFF6
:100830009FEF0895FC01918D228D892F90E0805CBF
:100840009F4F821B91098F73992708958FE792E03C
:100850000E941A0421E0892B09F420E0822F0895D8
:10086000FC01848DDF01A80FB11DA35ABF4F2C914D
:10087000848D90E001968F739927848FA689B7891C
:100880002C93A089B1898C9180648C93938D848DF5
:10089000981306C00288F389E02D80818F7D8083C4
:1008A0000895EF92FF920F931F93CF93DF93EC0184
:1008B00081E0888F9B8D8C8D981305C0E889F9891C
:1008C000808185FD24C0F62E0B8D10E00F5F1F4F39
:1008D0000F731127E02E8C8DE8120CC00FB607FCA9
:1008E000FACFE889F989808185FFF5CFCE010E9492
:1008F0003004F1CF8B8DFE01E80FF11DE35AFF4F5D
:10090000F0820B8FEA89FB898081806207C0EE89C3
:10091000FF896083E889F98980818064808381E030
:1009200090E0DF91CF911F910F91FF90EF9008958C
:10093000CF93DF93EC01888D8823C9F0EA89FB8986
:10094000808185FD05C0A889B9898C9186FD0FC07D
:100950000FB607FCF5CF808185FFF2CFA889B98952
:100960008C9185FFEDCFCE010E943004E7CFDF915F
:10097000CF91089580E090E0892B29F00E94260411
:1009800081110C94000008952091F2013091F3013F
:100990002817390771F49091F0018091F1019817AF
:1009A00041F0E091F001F0E0EF50FC4F808190E0E9
:1009B00008958FEF9FEF089508951F93CF93DF93CE
:1009C000DC015C968D919C915D97009739F421E054
:1009D00030E013963C932E9312973BC05196ED91C5
:1009E000FC91529750962C915097322F30951FB70B
:1009F0005E964C915E97742F727041FD6095F894ED
:100A00004081772311F0422B01C043234083EC0146
:100A10002197F1F748E0508160FF02C0522B01C0DE
:100A200053235083EC012197F1F76695415099F7D4
:100A30008081772319F08323808302C0282B2083B1
:100A40001FBF5C968D919C915D970197F1F781E0B6
:100A500090E0DF91CF911F9108952091F2013091A4
:100A6000F3012817390771F48091F1012091F00109
:100A700090E0805C9F4F821B910960E470E00E94CF
:100A80004F14089580E090E008952091F201309194
:100A9000F30128173907B9F49091F0018091F10121
:100AA000981789F0E091F001F0E0EF50FC4F808161
:100AB0002091F00130E02F5F3F4F2F7333272093B9
:100AC000F00190E008958FEF9FEF0895089580E082
:100AD00090E008950E94C1141F920F920FB60F92DA
:100AE00011242F933F934F935F936F937F938F9333
:100AF0009F93AF93BF93EF93FF938FE792E00E9492
:100B00003004FF91EF91BF91AF919F918F917F91B1
:100B10006F915F914F913F912F910F900FBE0F906A
:100B20001F9018951F920F920FB60F9211242F93BA
:100B30008F939F93EF93FF93E0918F02F091900238
:100B40008081E0919502F091960282FD12C0908121
:100B5000809198028F5F8F7320919902821751F0D4
:100B6000E0919802F0E0E158FD4F958F8093980254
:100B700001C08081FF91EF919F918F912F910F90F4
:100B80000FBE0F901F9018951F920F920FB60F92E5
:100B900011242F933F934F935F936F937F938F9382
:100BA0009F93AF93BF93EF93FF93E091F201F09186
:100BB000F301309709F451C0968DA685B7858585D8
:100BC00091FF04C09C91892329F447C09C918923FB
:100BD00009F043C0A389B4899C91858980958923B4
:100BE0008C93868997890197F1F7608D718DA68521
:100BF000B785558538E020E0CB010197F1F7822FCA
:100C000090E095958795282F4C91452309F0206811
:100C1000315091F7868D81FD20958091F10190E012
:100C200001968F7399273091F001381749F0A09100
:100C3000F101B0E0AF50BC4F2C938093F10103C0A1
:100C4000868D8160868F828D938D0197F1F7A389C0
:100C5000B4899C918589892B8C93FF91EF91BF91E9
:100C6000AF919F918F917F916F915F914F913F9144
:100C70002F910F900FBE0F901F901895CF93DF9379
:100C8000EC018A859B85AC85BD858E839F83A88773
:100C9000B9870E941A036A837B838C839D8381E0DA
:100CA00089838883DF91CF910895CF93DF93EC01FF
:100CB0008E819F81A885B9858A839B83AC83BD8300
:100CC0000E941A036A877B878C879D8781E08983CE
:100CD0008883DF91CF9108952F923F924F925F9238
:100CE0006F927F928F929F92AF92BF92CF92DF923C
:100CF000EF92FF920F931F93CF93DF93D82FC92FBB
:100D00008B010E94B60F24E630E040E050E00E94E4
:100D1000631449015A019B01AC0160E876E988E956
:100D200090E00E943F146B017C01F8019182808267
:100D3000ED2FFC2F2191822F022E000C990BC097D2
:100D40000A97C0F32E3239F51F0180E8882E86E914
:100D5000982E88E9A82EB12C9AE0492E512C612CAE
:100D6000712CF101C1911F010C2E000CDD0BE097DD
:100D7000CA30D10580F4C501B401A30192010E94DB
:100D8000631449015A01DE010E949614C60ED71E53
:100D9000E81EF91EE6CFA5E0B0E0A70196010E948B
:100DA0008B146F5F7F4F8F4F9F4F23E030E040E009
:100DB00050E00E946314F8012283338344835583F7
:100DC0001682DF91CF911F910F91FF90EF90DF90EE
:100DD000CF90BF90AF909F908F907F906F905F90DB
:100DE0004F903F902F900895FF920F931F93CF93B2
:100DF000DF93EC01F8802DE2F21201C02196CE01C2
:100E00000E94B60F9B01AC01A4E6B0E00E948B14D7
:100E1000FE014991242F042E000C330B205331097D
:100E20002A303105A8F34E3241F52181022E000C03
:100E3000330B205331092A303105F8F44AE0429F40
:100E40008001439F100D1124012E000C220B330B47
:100E5000600F711F821F931F0281002E000C110B67
:100E6000005311090A30110540F4012E000C220B29
:100E7000330B600F711F821F931F2DE2F21207C008
:100E800090958095709561957F4F8F4F9F4FDF9123
:100E9000CF911F910F91FF9008958EBD00000DB46A
:100EA00007FEFDCF8EB50895CF93DF93D82FC62FC1
:100EB00060E08AE00E9475028D2F80680E944D07D5
:100EC0008C2F0E944D0761E08AE0DF91CF910C9456
:100ED0007502CF9390910001981781F1C82F813846
:100EE00011F148F4803851F560E881E00E94540720
:100EF000C093000123C0833861F08538F9F460E0C5
:100F000089E00E94540763E28CE00E94540765E880
:100F10000BC060E08CE00E94540768E889E00E9402
:100F2000540763E801C061E881E00E945407C09360
:100F3000000183E00E944C02892BD9F3CF910895E0
:100F4000CF93C82F60E08AE00E9475028C2F8F77C4
:100F50000E944D0780E00E944D07C82F61E08AE0A3
:100F60000E9475028C2FCF910895CF93DF93CDB758
:100F7000DEB7C654D1090FB6F894DEBF0FBECDBFA1
:100F8000789484B5826084BD84B5816084BD85B564
:100F9000826085BD85B5816085BD80916E00816070
:100FA00080936E0010928100809181008260809316
:100FB0008100809181008160809381008091800018
:100FC0008160809380008091B10084608093B10043
:100FD0008091B00081608093B00080917A0084603D
:100FE00080937A0080917A00826080937A00809169
:100FF0007A008E7F80937A0080917A008068809357
:101000007A001092C100E0918F02F091900282E08C
:101010008083E0918B02F0918C021082E0918D022E
:10102000F0918E0287E6808310929702E0919302FE
:10103000F091940286E08083E0919102F091920217
:10104000808180618083E0919102F09192028081A1
:1010500088608083E0919102F091920280818068A3
:101060008083E0919102F091920280818F7D808354
:101070001092370310923603109235031092340306
:1010800010923303109232038DEC90E09093390369
:101090008093380390912803963108F058C025E5D5
:1010A00030E030933303209332032BEC30E0309365
:1010B00035032093340320E930E030933703209345
:1010C000360340916800983058F031E09E3008F4C3
:1010D00030E021E0822F01C0880F3A95EAF701C085
:1010E00084E0842B80936800983038F09E3040F084
:1010F000963148F020E030E008C02DE630E005C031
:101100002BE630E002C02CE630E030933003209331
:101110002F03983030F481E001C0880F9A95EAF7E8
:101120000EC0292F30E09E3018F42850310902C03B
:101130002E50310981E001C0880F2A95EAF780938B
:10114000310380913803909139030197F1F7809131
:10115000360390913703892B49F1E091F201F09128
:10116000F30123E0EC31F20709F1309739F0A3895C
:10117000B4899C918589809589238C9380913A03C9
:101180008E7F80933A031092F1011092F0018CE16E
:1011900093E09093F3018093F201E0912F03F0919B
:1011A0003003908180913103892B808361E08AE054
:1011B0000E94A40260E082E00E94A40260E083E05A
:1011C0000E94A4021FB7F8948091F401811127C0F6
:1011D000EFE0F2E08491E3E2F2E09491E82FF0E0B6
:1011E000EE0FFF1FED52FE4FA591B491EC91E92354
:1011F00021F461E08AE00E94750261E08AE00E94C9
:10120000A4028CB580618CBD8CB580648CBD61E01E
:101210008DE00E94A40261E08BE00E94A402809114
:10122000F4018F5F8093F4011FBF85E291E00E947B
:101230000E0280E80E94690760E881E00E9454077E
:1012400087E391E00E940E0285E491E00E94BB01D9
:101250004AE062EB71E080E090E00E94CD016EE236
:101260008FE792E00E9451044AE065E070E080E080
:1012700090E00E94CD014AE060E070E0CB010E9466
:10128000CD0183E591E00E94BB0186E591E00E94DB
:10129000BB014AE060E070EA8CE690E00E94CD017C
:1012A00083E591E00E94BB016CE686E00E94540752
:1012B00060EA87E00E94540760E088E00E945407DB
:1012C000109256021092550268E38DE10E94540775
:1012D00064E78EE10E94540764E086E20E945407AE
:1012E00081E30E94A007887F682F636081E30E94EA
:1012F00054076AE087E30E94540760E082E20E949C
:10130000540760E083E10E94540760E480E40E9497
:10131000540760E081E40E94540781E80E94690755
:1013200089E691E00E940E02EE24E39422E0722E00
:10133000FF24F394AA24A394B12C8CE193E00E949F
:101340002D05181619060CF089C38CE193E00E9454
:101350004505182F8091D8039091D903A091DA0305
:10136000B091DB030196A11DB11D8093D80390932A
:10137000D903A093DA03B093DB03143209F460C2FB
:10138000E091D203153234F41A3071F01D3009F0B7
:1013900064C20AC01A3241F01C3209F05EC2809168
:1013A000BF0381278093BF03EF3008F035C2F0E020
:1013B000EF53FC4F10828091C003882309F41CC1B5
:1013C0002091C1033FEB320F822F022E000C990BAC
:1013D000363010F4C79707C02156263018F48755C9
:1013E000910901C0C097282F2295207F3091C20318
:1013F0004FEB430F832F032E000C990B463010F454
:10140000C79707C03156363018F48755910901C087
:10141000C097820F9091BF038913DAC08091E403D3
:101420009091E503A091E603B091E7030196A11D19
:10143000B11D8093E4039093E503A093E603B0937A
:10144000E7038091D303882399F08091DC03909186
:10145000DD03A091DE03B091DF030196A11DB11D54
:101460008093DC039093DD03A093DE03B093DF034E
:101470000091D0030023B9F1013009F082C08DE55D
:1014800093E00E9455068BE693E00E9455068091FA
:10149000D303882309F475C087E0EBE4F3E0ADE300
:1014A000B3E001900D928A95E1F787E0E2E5F3E081
:1014B000A4E4B3E001900D928A95E1F70E941A032B
:1014C0006093590370935A0380935B0390935C037A
:1014D00000933C0300933B0389E793E00E943E06A0
:1014E00087E893E04CC08BE693E00E94550680911C
:1014F000D303882321F187E0EBE4F3E0ADE3B3E02D
:1015000001900D928A95E1F787E0E2E5F3E0A4E42B
:10151000B3E001900D928A95E1F70E941A0360935F
:10152000590370935A0380935B0390935C03F0928A
:101530003C03F0923B0385E993E00E943E068091D4
:10154000AD039091AE03A091AF03B091B00380932F
:10155000A9039093AA03A093AB03B093AC030E949A
:101560001A036093A5037093A6038093A703909337
:10157000A803F092A403F092A30381EB93E00E94EE
:101580003E06C090D603D090D703C114D10409F40D
:1015900045C1E091D603F091D70366A177A1F6018A
:1015A00086A197A10E94D114892B09F037C1B601F9
:1015B000C60140960E94DA140E941A03F60160A345
:1015C00071A382A393A3E5A2E4A2C2A4D3A4DDCF16
:1015D0008091E0039091E103A091E203B091E303D5
:1015E0000196A11DB11D8093E0039093E103A093A8
:1015F000E203B093E30310C19091D103911145C070
:1016000068E771E081EC93E00E94D114892B41F0EE
:101610006EE771E081EC93E00E94D114892B19F4FC
:10162000F092D00315C064E871E081EC93E00E9471
:10163000D114892B41F06AE871E081EC93E00E94BB
:10164000D114892B19F41092D00302C07092D003E8
:101650008091D4039091D5039093D7038093D603C0
:10166000C090D603D090D703C114D10409F4D4C0DC
:1016700061EC73E0F60186A197A10E94D11497FF57
:10168000C5C0F60182A593A5E7CFE091D003E23073
:1016900009F491C08091C103882309F48CC020E231
:1016A000E29FF0011124E92B3197E932F10508F0AE
:1016B00082C0EC5CFF4F0C94851481EC93E00E9497
:1016C000F406609371037093720380937303909395
:1016D000740371C091E0813409F043C043C06BE4EE
:1016E00073E009C091E0833509F090E090935103D5
:1016F00062C062E573E081EC93E00E946C065BC01F
:1017000091E0873509F090E09093580354C081EC44
:1017100093E00E94F40660938303709384038093A4
:1017200085039093860347C081EC93E00E94F40602
:101730006093910370939203809393039093940327
:101740003AC081EC93E00E94B60F609363037093FC
:10175000640380936503909366032DC091E0813309
:101760000CF490E09093D30326C081EC93E00E94A8
:10177000B60F6093AD037093AE038093AF03909365
:10178000B00319C081EC93E00E94F4066093BB03A0
:101790007093BC038093BD039093BE030CC081EC97
:1017A00093E00E94F40660939F037093A0038093DC
:1017B000A1039093A203C090D603D090D703C11485
:1017C000D10451F1E091D603F091D70366A177A13E
:1017D000F60186A197A10E94D114892BE9F4F601A4
:1017E00020A531A58091D10390E082179307A4F042
:1017F0002817390739F440E150E061EC73E0C60185
:101800000E94E114F601C2A4D3A4D9CF892B21F000
:101810001092D7031092D60380E001C081E090912E
:10182000D1039F5F9093D1031092D20391E01A32BB
:1018300009F090E09093C003882309F47ECD21C085
:101840001092D2031092D1031092BF037092D00372
:101850001092C0031092D30370CDEE3040F481E0BB
:101860008E0F8093D203F0E0EF53FC4F10838091F2
:10187000C003811162CD8091BF0318271093BF036D
:101880005CCD10913B03112309F45EC010923C0320
:1018900060914603709147038091480390914903FA
:1018A0000E94B11328E23BE64EE65EE40E94091373
:1018B0001B012C01609144037091450380E090E08E
:1018C0000E94B1139B01AC01C201B1010E949D12A3
:1018D00020914A03DC01CB012111B05880932902E9
:1018E00090932A02A0932B02B0932C0260913F03A5
:1018F0007091400380914103909142030E94B11383
:1019000028E23BE64EE65EE40E9409131B012C012F
:1019100060913D0370913E0380E090E00E94B1131E
:101920009B01AC01C201B1010E949D1220914303B1
:10193000DC01CB012111B05880932D0290932E022F
:10194000A0932F02B093300280919503882309F46D
:10195000F4CC1092960360919B0370919C0380914C
:101960009D0390919E030E94B31320E030E048EC69
:1019700052E40E9409130E947B136093310270931A
:1019800032028093330290933402112309F4D5CCB0
:101990006BED71E0CE0101960E94DA14609129028C
:1019A00070912A0280912B0290912C028E010D5C85
:1019B0001F4F26E042E00E94960FB801CE0101962B
:1019C0000E94C61460912D0270912E0280912F0208
:1019D0009091300226E042E00E94960F6DED71E09A
:1019E000CE0101960E94C614B801CE0101960E9454
:1019F000C61460913102709132028091330290914D
:101A000034022AE0A8010E94DD0F6DED71E0CE01E5
:101A100001960E94C614B801CE0101960E94C61418
:101A2000CE0101960E940E02CE0101960E9426036D
:101A30008091530290915402029709F04AC082E0CB
:101A40000E944C02892B09F43DC068E082E10E94AB
:101A5000540710925402109253023BC00E941A0382
:101A6000693873418105910550F18091D8039091B7
:101A7000D903A091DA03B091DB030A97A105B10560
:101A8000F0F404EB11E0F801649161110FC083E5FB
:101A900091E00E94BB0182ED91E00E94260368E87C
:101AA00073E180E090E00E94E00209C08FE792E0DD
:101AB0000E9451040F5F1F4F892B29F7E8CF0E9426
:101AC000BA0438CC6AE070E080E090E00E94E00266
:101AD000AFCF60E080E40E94540760E08FE00E9496
:101AE000540760E08DE00E94540785E80E94690772
:101AF000B0925402A09253021EE164E670E080E0CE
:101B000090E00E94E002809153029091540201976C
:101B100009F07AC082E00E944C02892B09F474C05B
:101B200082E10E94A007182F60E482E10E9454071E
:101B300015FF0EC060E282E10E9454078091F5011A
:101B40009091F60101969093F6018093F501F5CB03
:101B500080E10E94A007D82E83E10E94A007082FF1
:101B600010E00E31110514F00DE110E06D2D8DE047
:101B70000E94540787EF882E81E0982EC801895073
:101B80009E4F6C01C814D90439F080E00E94A00770
:101B9000F40181934F01F6CFF60110826FEF82E1DD
:101BA0000E9454070115110509F4C7CBF6011082F4
:101BB00080E991E00E940E0281EA91E00E94BB015F
:101BC0008091F701082E000C990B0E941C028EEAEE
:101BD00091E00E94BB018091F801082E000C990B46
:101BE0000E941C028FEB91E00E94BB01C8010E9481
:101BF0001C028BEF91E00E940E0264EF71E080E026
:101C000090E00E94E00299CB115009F076CF95CB7D
:101C1000109282021092810288EE93E0A0E0B0E080
:101C20008093830290938402A0938502B0938602EE
:101C300025E031E03093800220937F0225EC30E0F4
:101C400030938C0220938B0224EC30E030938E0290
:101C500020938D0220EC30E03093900220938F028D
:101C600021EC30E0309392022093910222EC30E09C
:101C7000309394022093930226EC30E03093960246
:101C800020939502109298021092990210929A0253
:101C900010929B0210923B0310923C0310923E0361
:101CA00010923D0310923F031092400310924103A3
:101CB0001092420310924303109245031092440382
:101CC0001092460310924703109248031092490362
:101CD00010924A0310924C0310924B0310924D0342
:101CE00010924E0310924F03109250031092510322
:101CF0001092530310925203109254031092550302
:101D000010925603109257031092580310925D03DD
:101D100010925E0310925F031092600310926103B1
:101D20001092620310926B0310926C0310926D0379
:101D300010926E0310926F03109270031092790349
:101D400010927A0310927F03109280031092810305
:101D500010928203109287031092880310928D03D1
:101D600010928E0310928F0310929003109295039D
:101D70001092960310929B0310929C0310929D0365
:101D800010929E031092A3031092A4031092A90331
:101D90001092AA031092AB031092AC031092B103FD
:101DA0001092B2031092B7031092B8031092B903C5
:101DB0001092BA031092BF031092C00322E0209346
:101DC000D0031092D1031092D2031092D303109239
:101DD000D5031092D4031092D7031092D603109219
:101DE000D8031092D9031092DA031092DB031092F9
:101DF000DC031092DD031092DE031092DF031092D9
:101E0000E0031092E1031092E2031092E3031092B8
:101E1000E4031092E5031092E6031092E703109298
:101E2000C10310921F0310921E038093200390930E
:101E30002103A0932203B093230387E191E09093C1
:101E40001D0380931C0310923303109232031092EF
:101E50003503109234031092370310923603109218
:101E600039031092380360913A036E7F6D7F60935F
:101E70003A036695617081E0682785E00E947502EB
:101E800061E085E00E94A402EEE1F2E0E491E093DB
:101E90002C03EAE0F2E0E491F0E0EE0FFF1FE550E2
:101EA000FE4F8591949190932E0380932D0360E0D3
:101EB00084E00E94A40280913A0381FD04C061E0A5
:101EC00084E00E94750284E080932803EDE1F2E053
:101ED000E491E0932903E9E0F2E0E491F0E0EE0F11
:101EE000FF1FEF50FE4F8591949190932B038093A9
:101EF0002A03089587E191E090931D0380931C03CA
:101F00008091F2019091F3018C51934071F4E09132
:101F10002F03F091300390818091310380958923C4
:101F200080831092F3011092F2010895EF920F93C3
:101F30001F93CF93DF93E80147FD02C034E001C057
:101F400034E1042E000C550B57FF03C05195419509
:101F50005109E32E022F242FAE010E942310CE013F
:101F6000DF91CF911F910F91EF9008951F93FC0186
:101F700099278827BC01E89411911032E9F31930B0
:101F800010F01E30C8F31B3251F01D3249F4689432
:101F900006C00E94EC0F610F711D811D911D1191F2
:101FA00010531A30B0F33EF490958095709561957A
:101FB0007F4F8F4F9F4F1F910895BB272A3051F4B9
:101FC000992342F4BDE290958095709561957F4F7D
:101FD0008F4F9F4F0C940210592F482F372F262FC9
:101FE000660F771F881F991F660F771F881F991F1D
:101FF000620F731F841F951F660F771F881F991F1D
:102000000895BB27FA01A62F621771058105910576
:10201000330B30FB66F0AA27660F771F881F991FC6
:10202000AA1FA21710F0A21B63953850A9F7A05D54
:10203000AA3308F0A95DA19336F7B111B1931082CC
:10204000CA010C945512A9E0B0E0E9E2F0E10C9469
:102050006B126A01122FB02E2BE3201720F0FF2401
:10206000F394F00E02C02CE3F22E0F2D27E0AE0108
:102070004F5F5F4F0E947D11BC014981842F8970A1
:10208000813031F0E1FC06C0E0FE06C090E205C000
:102090009DE203C09BE201C090E05E2D507143FFC2
:1020A0003CC0911102C083E001C084E0811718F4A4
:1020B000212F281B01C020E051110BC0F601822FF7
:1020C00030E2882319F031938150FBCFC20ED11C2E
:1020D00020E0992329F0D6019C93F60131966F01F7
:1020E000C6010396E2FE0AC03EE4D6013C9341E4F9
:1020F00011964C93119712963C9306C03EE6F6015A
:10210000308341E641833283FC01322F40E23323A6
:1021100009F442C041933150FACF42FF44C09111BB
:1021200002C083E001C084E0811718F4212F281B2E
:1021300001C020E051110BC0F601822F30E288234C
:1021400019F031938150FBCFC20ED11C20E09923AE
:1021500029F0D6019C93F60131966F01C6010396D2
:10216000E2FE0BC039E4D6013C933EE411963C9369
:10217000119736E412963C9307C039E6F601308396
:102180003EE6318336E63283FC01322F40E23323D0
:1021900019F041933150FBCFFC01E20FF11D108289
:1021A0008EEF9FEFA6C021E030E0911102C020E049
:1021B00030E0161617061CF4FB01319602C0E1E070
:1021C000F0E02E0F3F1FBB2021F0EB2DF0E0319609
:1021D00002C0E0E0F0E02E0F3F1FE12FF0E02E17ED
:1021E0003F071CF4121B212F01C020E08E2D8871A7
:1021F00059F4F601822F30E2882319F0319381508F
:10220000FBCFC20ED11C20E0992329F0D6019C936C
:10221000F60131966F0151110BC0F601822F90E348
:10222000882319F091938150FBCFC20ED11C20E07E
:102230000F2D060F9A81342F307144FF03C0913364
:1022400009F40150101624F4093018F008E001C018
:1022500001E0AB0177FF02C040E050E0FB01E41B6E
:10226000F50BA1E0B0E0AC0FBD1FEA0FFB1F8EE243
:10227000A82E4B01801A91080B2D10E011950195A5
:1022800011094F3FBFEF5B0721F4D601AC921196C5
:102290006D01641775072CF08416950614F481817E
:1022A00001C080E3415051093196D60111967D015C
:1022B0004017510724F0D6018C936701E2CF6417D1
:1022C000750739F4963320F4953319F4311101C0B0
:1022D00081E3F6018083F701822F90E2882319F0D1
:1022E00091938150FBCFF701E20FF11D108280E046
:1022F00090E02996ECE00C948712283008F027E053
:102300003327DA01990F311D87FD91600096610531
:10231000710539F432602E5F3D9330E32A95E1F781
:1023200008959F3F30F080387105610509F03C5FEA
:102330003C5F3D93913008F08068911DDF93CF930F
:102340001F930F93FF92EF92192F987F9695E92F85
:1023500096959695E90FFF27EC5EFE4F9927332758
:10236000EE24FF24A701E70105900894079428F4C0
:10237000360FE71EF81E491F511D660F771F881F75
:10238000991F0694A1F70590079428F4E70EF81E0C
:10239000491F561FC11D770F881F991F661F06947E
:1023A000A1F70590079428F4F80E491F561FC71F80
:1023B000D11D880F991F661F771F0694A1F70590FE
:1023C000079420F4490F561FC71FD81F990F661F87
:1023D000771F881F0694A9F784911095177041F014
:1023E000D695C79557954795F794E7941A95C1F7F1
:1023F000EAEBF0E06894159015913591659195910F
:1024000005907FE27395E118F10A430B560BC90B57
:10241000D009C0F7E10CF11E431F561FC91FD01D84
:102420007EF4703311F48A95E6CFE894015030F0D1
:10243000080F0AF40027021708F4202F2395022F13
:102440007A3328F079E37D932A95E9F710C07D93DC
:102450002A9589F606949795679537951795179459
:10246000E118F10A430B560BC90BD00998F02395DC
:102470007E9173957A3308F070E37C932013B8F75C
:102480007E9170617D9330F0839571E37D9370E36D
:102490002A95E1F71124EF90FF900F911F91CF91B2
:1024A000DF91992787FD90950895DC01FC01672F46
:1024B00071917723E1F7329704C07C916D9370831B
:1024C0006291AE17BF07C8F308952F923F924F92C3
:1024D0005F926F927F928F929F92AF92BF92CF92B4
:1024E000DF92EF92FF920F931F93CF93DF93CDB7BD
:1024F000DEB7CA1BDB0B0FB6F894DEBF0FBECDBF35
:1025000009942A88398848885F846E847D848C8405
:102510009B84AA84B984C884DF80EE80FD800C810E
:102520001B81AA81B981CE0FD11D0FB6F894DEBFF1
:102530000FBECDBFED0108955058BB27AA270E94BA
:10254000B4120C9405140E94F71338F00E94FE1385
:1025500020F039F49F3F19F426F40C94F4130EF490
:10256000E095E7FB0C94EE13E92F0E94161458F344
:10257000BA17620773078407950720F079F4A6F568
:102580000C9438140EF4E0950B2EBA2FA02D0B01ED
:10259000B90190010C01CA01A0011124FF27591BA8
:1025A00099F0593F50F4503E68F11A16F040A22FAE
:1025B000232F342F4427585FF3CF4695379527951F
:1025C000A795F0405395C9F77EF41F16BA0B620B1E
:1025D000730B840BBAF09150A1F0FF0FBB1F661F65
:1025E000771F881FC2F70EC0BA0F621F731F841FA8
:1025F00048F4879577956795B795F7959E3F08F0CE
:10260000B0CF9395880F08F09927EE0F979587958F
:1026100008950E941D130C9405140E94FE1358F097
:102620000E94F71340F029F45F3F29F00C94EE1359
:1026300051110C9439140C94F4130E94161468F37D
:102640009923B1F3552391F3951B550BBB27AA276B
:1026500062177307840738F09F5F5F4F220F331FA5
:10266000441FAA1FA9F335D00E2E3AF0E0E832D06D
:1026700091505040E695001CCAF72BD0FE2F29D070
:10268000660F771F881FBB1F261737074807AB0742
:10269000B0E809F0BB0B802DBF01FF2793585F4FB7
:1026A0003AF09E3F510578F00C94EE130C943914D7
:1026B0005F3FE4F3983ED4F3869577956795B79599
:1026C000F7959F5FC9F7880F911D9695879597F9A4
:1026D0000895E1E0660F771F881FBB1F621773071D
:1026E0008407BA0720F0621B730B840BBA0BEE1F32
:1026F00088F7E09508950E9482136894B1110C94B4
:10270000391408950E941E1488F09F5798F0B92F2D
:102710009927B751B0F0E1F0660F771F881F991F16
:102720001AF0BA95C9F714C0B13091F00E9438146C
:10273000B1E008950C943814672F782F8827B85F7C
:1027400039F0B93FCCF3869577956795B395D9F76E
:102750003EF490958095709561957F4F8F4F9F4F78
:102760000895E89409C097FB3EF490958095709584
:1027700061957F4F8F4F9F4F9923A9F0F92F96E9CD
:10278000BB279395F695879577956795B795F11142
:10279000F8CFFAF4BB0F11F460FF1BC06F5F7F4FDF
:1027A0008F4F9F4F16C0882311F096E911C07723F1
:1027B00021F09EE8872F762F05C0662371F096E8FA
:1027C000862F70E060E02AF09A95660F771F881FC9
:1027D000DAF7880F9695879597F9089597F99F6787
:1027E00080E870E060E008959FEF80EC0895002499
:1027F0000A941616170618060906089500240A9466
:1028000012161306140605060895092E0394000CEB
:1028100011F4882352F0BB0F40F4BF2B11F460FF7A
:1028200004C06F5F7F4F8F4F9F4F089557FD9058A3
:10283000440F551F59F05F3F71F04795880F97FB84
:10284000991F61F09F3F79F087950895121613063E
:102850001406551FF2CF4695F1DF08C0161617066D
:102860001806991FF1CF86957105610508940895A2
:10287000E894BB2766277727CB0197F90895DB01FA
:102880008F939F930E948B14BF91AF91A29F800D55
:10289000911DA39F900DB29F900D1124089597FB59
:1028A000072E16F4009407D077FD09D00E949E14DD
:1028B00007FC05D03EF4909581959F4F0895709543
:1028C00061957F4F0895A1E21A2EAA1BBB1BFD0143
:1028D0000DC0AA1FBB1FEE1FFF1FA217B307E407FF
:1028E000F50720F0A21BB30BE40BF50B661F771F57
:1028F000881F991F1A9469F7609570958095909537
:102900009B01AC01BD01CF010895EE0FFF1F0590A3
:10291000F491E02D09940E94B214A59F900DB49FEC
:10292000900DA49F800D911D11240895B7FF0C9464
:102930008B140E948B14821B930B0895AA1BBB1B44
:1029400051E107C0AA1FBB1FA617B70710F0A61BAF
:10295000B70B881F991F5A95A9F780959095BC01D0
:10296000CD010895A29FB001B39FC001A39F700D38
:10297000811D1124911DB29F700D811D1124911D87
:10298000089581E090E0F8940C94F014FB01DC01D0
:102990000D900020E9F7119701900D920020E1F7CA
:1029A0000895FB01DC018D91019080190110D9F38C
:1029B000990B0895FB01DC0101900D920020E1F7D5
:1029C0000895FB01DC014150504048F001900D9208
:1029D0000020C9F701C01D9241505040E0F7089512
:1029E00011E0C8E1D1E004C0FE010E9485142196E7
:0A29F000C931D107C9F7F894FFCFF1
:1029FA00810000000051049101E90398041A04F8C7
:102A0A00030C0400000000DD0491016705DC042DBD
:102A1A00054505C40453657474696E67204C6F528A
:102A2A0061204D6F6465004C6F5261204D6F646583
:102A3A0020536574004672657175656E6379206905
:102A4A007320000D0A004672657175656E637956CA
:102A5A00616C756520697320005365747570204335
:102A6A006F6D706C657465004750524D4300474E58
:102A7A00524D4300475047474100474E47474100A0
:102A8A004D65737361676520526563656976656430
:102A9A000054686973204E6F64653D3E20002047EC
:102AAA00617465776179204E6F64653D3E20002030
:102ABA0042797465732052656365697665643D3E43
:102ACA002000243F4E6F204750530024002C00530F
:102ADA00656E64696E672000206279746573000010
:00000001FF
