:100000000C94BF000C94E7000C94E7000C94C80219
:100010000C94C8020C94C8020C94E7000C94E700FE
:100020000C94E7000C94E7000C94E7000C94E700B4
:100030000C94E7000C94E7000C94E7000C94E700A4
:100040000C94C5060C94E7000C9496020C94700274
:100050000C94E7000C94E7000C94E7000C94E70084
:100060000C94E7000C94E7007C0B8E0B910B980B23
:100070009F0BCD0BD40BE10BEE0BFA0BFA0BFA0B2B
:10008000FA0BFA0BFA0BFA0BFA0BFA0BFA0BFA0B48
:10009000FA0BFA0BFA0BFA0BFA0BFA0BFA0BFA0B38
:1000A000FA0BFA0BFA0BFA0B7C0B890B8E0B910BEC
:1000B000980B9F0BA60BB30BC00B494E56414C49F6
:1000C000440030002E0030003A0030003A0030008A
:1000D0002000494E56414C4944002F002F0020205B
:1000E000446174652F54696D653A2000494E56414C
:1000F0004C4944002C004C6F636174696F6E3A2068
:10010000004E6F20475053206465746563746564C6
:100110003A20636865636B20776972696E672E00A9
:1001200000000000240027002A0000000008000250
:1001300001000003040700000000000000000000B0
:100140000000250028002B000000000023002600EE
:10015000290004040404040404040202020202024A
:10016000030303030303010204081020408001027B
:1001700004081020010204081020220E180E112479
:100180001FBECFEFD8E0DEBFCDBF11E0A0E0B1E0F1
:10019000EEE7F5E202C005900D92AE3AB107D9F74D
:1001A00023E0AEEAB1E001C01D92A736B207E1F745
:1001B00010E0CEEBD0E004C02197FE010E94521265
:1001C000CD3BD107C9F70E940F070C94B2120C94D3
:1001D0000000FC01538D448D252F30E0842F90E0EA
:1001E000821B930B541710F0CF9608950197089532
:1001F000FC01918D828D981761F0828DDF01A80F2F
:10020000B11D5D968C91928D9F5F9F73928F90E050
:1002100008958FEF9FEF0895FC01918D828D9817BF
:1002200031F0828DE80FF11D858D90E008958FEFFC
:100230009FEF0895FC01918D228D892F90E0805CC5
:100240009F4F821B91098F739927089585EF91E045
:100250000E941A0121E0892B09F420E0822F0895E1
:10026000FC01848DDF01A80FB11DA35ABF4F2C9153
:10027000848D90E001968F739927848FA689B78922
:100280002C93A089B1898C9180648C93938D848DFB
:10029000981306C00288F389E02D80818F7D8083CA
:1002A0000895EF92FF920F931F93CF93DF93EC018A
:1002B00081E0888F9B8D8C8D981305C0E889F98922
:1002C000808185FD24C0F62E0B8D10E00F5F1F4F3F
:1002D0000F731127E02E8C8DE8120CC00FB607FCAF
:1002E000FACFE889F989808185FFF5CFCE010E9498
:1002F0003001F1CF8B8DFE01E80FF11DE35AFF4F66
:10030000F0820B8FEA89FB898081806207C0EE89C9
:10031000FF896083E889F98980818064808381E036
:1003200090E0DF91CF911F910F91FF90EF90089592
:10033000CF93DF93EC01888D8823C9F0EA89FB898C
:10034000808185FD05C0A889B9898C9186FD0FC083
:100350000FB607FCF5CF808185FFF2CFA889B98958
:100360008C9185FFEDCFCE010E943001E7CFDF9168
:10037000CF91089580E090E0892B29F00E9426011A
:1003800081110C94000008952091B0013091B101C9
:100390002817390771F49091AE018091AF01981739
:1003A00041F0E091AE01F0E0EB54FE4F808190E02F
:1003B00008958FEF9FEF089508951F93CF93DF93D4
:1003C000DC015C962D913C915D972115310539F446
:1003D00081E090E013969C938E9312973DC05196C6
:1003E000ED91FC91529750969C915097892F809552
:1003F0001FB75E964C915E9741FB772770F941FDE0
:100400006095F8944081772311F0492B01C048236F
:100410004083E9012197F1F748E0508160FF02C075
:10042000592B01C058235083E9012197F1F76695B4
:10043000415099F7772321F090818923808303C06D
:100440008081982B90831FBF5C968D919C915D97C6
:100450000197F1F721E030E0C901DF91CF911F91C1
:1004600008952091B0013091B1012817390771F436
:100470008091AF012091AE0190E0805C9F4F821B84
:10048000910960E470E00E941C12089580E090E001
:1004900008952091B0013091B10128173907B9F4BE
:1004A0009091AE018091AF01981789F0E091AE0173
:1004B000F0E0EB54FE4F80812091AE0130E02F5FE1
:1004C0003F4F2F7333272093AE0190E008958FEFB5
:1004D0009FEF0895089580E090E008950E948E12A5
:1004E0001F920F920FB60F9211242F933F934F93A9
:1004F0005F936F937F938F939F93AF93BF93EF938C
:10050000FF9385EF91E00E943001FF91EF91BF9141
:10051000AF919F918F917F916F915F914F913F919B
:100520002F910F900FBE0F901F9018951F920F9252
:100530000FB60F9211242F938F939F93EF93FF93F6
:10054000E0910502F09106028081E0910B02F091AA
:100550000C0282FD12C0908180910E028F5F8F731A
:1005600020910F02821751F0E0910E02F0E0EB5063
:10057000FE4F958F80930E0201C08081FF91EF9115
:100580009F918F912F910F900FBE0F901F901895F4
:100590001F920F920FB60F9211242F933F934F93F8
:1005A0005F936F937F938F939F93AF93BF93EF93DB
:1005B000FF93E091B001F091B101309709F451C07F
:1005C000968DA685B785858591FF04C09C9189236A
:1005D00029F447C09C91892309F043C0A389B489B9
:1005E0009C918589809589238C9386899789019729
:1005F000F1F7608D718DA685B785558538E020E0CF
:10060000CB010197F1F7822F90E095958795282FE0
:100610004C91452309F02068315091F7868D81FD7A
:1006200020958091AF0190E001968F7399273091CA
:10063000AE01381749F0A091AF01B0E0AB54BE4F06
:100640002C938093AF0103C0868D8160868F828D4D
:10065000938D0197F1F7A389B4899C918589892BA2
:100660008C93FF91EF91BF91AF919F918F917F916B
:100670006F915F914F913F912F910F900FBE0F900F
:100680001F901895E091B001F091B101E817F907BA
:1006900069F4A389B4899C918589809589238C9379
:1006A0001092B1011092B00181E0089580E00895A8
:1006B000CF93DF93EC018A859B85AC85BD858E83C6
:1006C0009F83A887B9870E94B9066A837B838C833E
:1006D0009D8381E089838883DF91CF9108952F9254
:1006E0003F924F925F926F927F928F929F92AF92C2
:1006F000BF92CF92DF92EF92FF920F931F93CF930F
:10070000DF93D82FC92F8B010E94940F24E630E08D
:1007100040E050E00E94301249015A019B01AC01B7
:1007200060E876E988E990E00E940C126B017C0198
:10073000F80191828082ED2FFC2F2191822F022ED1
:10074000000C990BC0970A97C0F32E3239F51F01A0
:1007500080E8882E86E9982E88E9A82EB12C9AE0A8
:10076000492E512C612C712CF101C1911F010C2ECD
:10077000000CDD0BE097CA30D10580F4C501B4014F
:10078000A30192010E94301249015A01DE010E9428
:100790006312C60ED71EE81EF91EE6CFA5E0B0E034
:1007A000A70196010E9458126F5F7F4F8F4F9F4F96
:1007B00023E030E040E050E00E943012F801228354
:1007C0003383448355831682DF91CF911F910F911C
:1007D000FF90EF90DF90CF90BF90AF909F908F9061
:1007E0007F906F905F904F903F902F900895FF9271
:1007F0000F931F93CF93DF93EC01FF24F394888131
:100800008D3211F0F12C01C02196CE010E94940F7F
:100810009B01AC01A4E6B0E00E945812FE01499190
:10082000242F042E000C330B205331092A303105BC
:10083000A8F34E3241F52181022E000C330B2053D8
:1008400031092A303105F8F44AE0429F8001439F84
:10085000100D1124012E000C220B330B600F711FA1
:10086000821F931F0281002E000C110B00531109EF
:100870000A30110540F4012E000C220B330B600FDF
:10088000711F821F931FFF2039F0909580957095FE
:1008900061957F4F8F4F9F4FDF91CF911F910F91A8
:1008A000FF9008958EBD00000DB407FEFDCF8EB5FC
:1008B0000895CF93DF93D82FC62F60E08AE00E947F
:1008C00028068D2F80680E9452048C2F0E945204AB
:1008D00061E08AE0DF91CF910C942806CF92DF92FD
:1008E000EF92FF920F931F93CF93DF936C017A01E6
:1008F0008B01C0E0D0E0CE15DF0589F0D8016D9105
:100900008D01D601ED91FC910190F081E02DC601A1
:100910000995892B11F47E0102C02196ECCFC70105
:10092000DF91CF911F910F91FF90EF90DF90CF90CB
:100930000895009769F0FC0101900020E9F73197D4
:10094000AF01481B590BBC0185EF91E00C946E047C
:1009500080E090E008950F931F93CF93DF938C0175
:10096000C0E0D0E0F801EC0FFD1F6491662371F048
:10097000E091F501F091F6010190F081E02D85EF15
:1009800091E00995892B11F02196ECCFCE01DF91F2
:10099000CF911F910F9108958F929F92AF92BF9226
:1009A0000F931F93CF93DF93CDB7DEB7A1970FB609
:1009B000F894DEBF0FBECDBF19A2423008F44AE062
:1009C0008E010F5D1F4F842E912CA12CB12CA501FF
:1009D00094010E943012E62FB901CA010150110999
:1009E000EA3014F4E05D01C0E95CD801EC93232BFC
:1009F000242B252B61F7C8010E949904A1960FB6FC
:100A0000F894DEBF0FBECDBFDF91CF911F910F9144
:100A1000BF90AF909F908F9008954F925F926F928A
:100A20007F928F929F92AF92BF92CF92DF92EF927E
:100A3000FF926B017C01B42E9B01AC010E94071256
:100A4000882319F081EA91E027C026013701E89454
:100A500077F82FEF3FEF4FE75FE7C301B2010E9446
:100A6000071281110DC02FEF3FEF4FE75FE7C30182
:100A7000B2010E943D1018161CF485EA91E00CC0EA
:100A80002FEF3FEF4FE75FE4C701B6010E949511DA
:100A9000181684F489EA91E0FF90EF90DF90CF90F0
:100AA000BF90AF909F908F907F906F905F904F908E
:100AB0000C9499042FEF3FEF4FE75FECC701B601AD
:100AC0000E943D1087FDE6CF20E030E0A901C7017C
:100AD000B6010E943D1087FF11C0E091F501F09131
:100AE000F6010190F081E02D6DE285EF91E009952E
:100AF0004C01F7FAF094F7F8F09402C0812C912C95
:100B0000A12C60E070E080E09FE3AB1441F020E0B6
:100B100030E040E251E40E944210A394F6CF9B01E2
:100B2000AC01C701B6010E94D10F2B013C010E940C
:100B3000B4106B017C010E94E3109B01AC01C30166
:100B4000B2010E94D00F2B013C014AE0C701B6015F
:100B50000E94CC047C01E80CF91CBB2069F0E091F8
:100B6000F501F091F6010190F081E02D6EE285EF44
:100B700091E00995E80EF91EDB2CDD2021F120E043
:100B800030E040E251E4C301B2010E949A112B010E
:100B90003C010E94B4104B01A12CB12C4AE0C501CC
:100BA000B4010E94CC04E80EF91EC501B4010E94F4
:100BB000E3109B01AC01C301B2010E94D00F2B01D5
:100BC0003C01DA94DACFC701FF90EF90DF90CF902D
:100BD000BF90AF909F908F907F906F905F904F905D
:100BE0000895CF93DF930E949904EC0183E591E08F
:100BF0000E9499048C0F9D1FDF91CF91089583303F
:100C000081F028F4813099F08230A1F00895873086
:100C1000A9F08830B9F08430D1F4809180008F7DC4
:100C200003C0809180008F7780938000089584B501
:100C30008F7702C084B58F7D84BD08958091B00008
:100C40008F7703C08091B0008F7D8093B0000895AE
:100C50001F93CF93DF93282F30E0F901E65DFE4F1D
:100C60008491F901EA59FE4FD491F901EE5AFE4FF1
:100C7000C491CC23C9F0162F81110E94FF05EC2FDF
:100C8000F0E0EE0FFF1FE25CFE4FA591B4918FB72D
:100C9000F894111105C09C91ED2FE095E92302C055
:100CA000EC91ED2BEC938FBFDF91CF911F910895C5
:100CB000CF93DF9390E0FC01EA59FE4F2491FC01B1
:100CC000EE5AFE4F8491882361F190E0880F991FBE
:100CD000FC01E05EFE4FC591D491FC01E25CFE4F49
:100CE000A591B491611109C09FB7F89488812095AE
:100CF00082238883EC912E230BC0623061F49FB76E
:100D0000F8943881822F809583238883EC912E2B51
:100D10002C939FBF06C08FB7F894E8812E2B2883B1
:100D20008FBFDF91CF9108953FB7F894809163030F
:100D300090916403A0916503B091660326B5A89BCA
:100D400005C02F3F19F00196A11DB11D3FBFBA2F5D
:100D5000A92F982F8827820F911DA11DB11DBC01BD
:100D6000CD0142E0660F771F881F991F4A95D1F782
:100D700008952FB7F89460915F037091600380919C
:100D80006103909162032FBF08951F920F920FB6D7
:100D90000F9211242F933F938F939F93AF93BF9301
:100DA00080915F0390916003A0916103B091620311
:100DB00030915E0323E0230F2D3720F40196A11D0F
:100DC000B11D05C026E8230F0296A11DB11D209379
:100DD0005E0380935F0390936003A0936103B093DD
:100DE00062038091630390916403A0916503B091C5
:100DF00066030196A11DB11D809363039093640364
:100E0000A0936503B0936603BF91AF919F918F91BB
:100E10003F912F910F900FBE0F901F901895CF9379
:100E2000DF93CDB7DEB7E6970FB6F894DEBF0FBEFF
:100E3000CDBF789484B5826084BD84B5816084BD63
:100E400085B5826085BD85B5816085BD80916E0068
:100E5000816080936E001092810080918100826099
:100E600080938100809181008160809381008091D6
:100E700080008160809380008091B10084608093C5
:100E8000B1008091B00081608093B00080917A00C1
:100E9000846080937A0080917A00826080937A00E7
:100EA00080917A00816080937A0080917A008068D6
:100EB00080937A001092C100E0910502F091060241
:100EC00082E08083E0910102F09102021082E091C1
:100ED0000302F09104028FEC808310920D02E091E6
:100EE0000902F0910A0286E08083E0910702F09106
:100EF0000802808180618083E0910702F0910802FE
:100F0000808188608083E0910702F09108028081EF
:100F100080688083E0910702F091080280818F7DD4
:100F200080831092AD021092AC021092AB0210922C
:100F3000AA021092A9021092A8028DE991E0909362
:100F4000AF028093AE0290919E02963108F057C096
:100F50002DEB30E03093A9022093A8022BE931E079
:100F60003093AB022093AA022CE231E03093AD0221
:100F70002093AC0220916800983050F031E09E3010
:100F800008F430E081E001C0880F3A95EAF701C02B
:100F900084E0822B80936800983038F09E3040F0D7
:100FA000963148F020E030E008C02DE630E005C082
:100FB0002BE630E002C02CE630E03093A60220930E
:100FC000A502983030F481E001C0880F9A95EAF7C5
:100FD0000EC0292F30E09E3018F42850310902C08D
:100FE0002E50310981E001C0880F2A95EAF78093DD
:100FF000A7028091AE029091AF020197F1F7809124
:10100000AC029091AD02892B21F18091B0019091B9
:10101000B10122E082399207E1F0009711F00E94BD
:1010200042038091B0028E7F8093B0021092AF0194
:101030001092AE0182E992E09093B1018093B001E9
:10104000E091A502F091A60290818091A702892BE0
:10105000808361E08AE00E94580660E082E00E949E
:10106000580660E083E00E9458061FB7F89480910C
:10107000B201811127C0ECE5F1E08491E0E7F1E0F5
:101080009491E82FF0E0EE0FFF1FE05EFE4FA59178
:10109000B491EC91E92321F461E08AE00E942806F2
:1010A00061E08AE00E9458068CB580618CBD8CB5E9
:1010B00080648CBD61E08DE00E94580661E08BE0A9
:1010C0000E9458068091B2018F5F8093B2011FBFCA
:1010D00085E291E00E94F10580910001803839F0AD
:1010E00060E881E00E94590480E88093000160E894
:1010F00081E00E94590487E391E00E94F10585E4B4
:1011000091E00E94990442E060E070E489ED93E48C
:101110000E940D0583E591E00E94990486E591E027
:101120000E9499044AE060E070EA8CE690E00E9438
:10113000CC0483E591E00E9499046CE686E00E946D
:10114000590460EA87E00E94590460E088E00E9448
:1011500059041092B4011092B30168E38DE10E942A
:10116000590464E78EE10E94590464E086E20E941B
:10117000590460E08AE00E94280681E30E9452043C
:1011800080E00E945204182F61E08AE00E94280645
:10119000612F687F636081E30E9459046AE087E3FE
:1011A0000E94590460E082E20E94590460E083E1F9
:1011B0000E94590460E480E40E94590460E081E4E4
:1011C0000E945904809100018138A1F489E691E0E0
:1011D0000E94F10557E0352E64E6C62ED12CE12C95
:1011E000F12C70E1472E77E2572E612C712CE2E052
:1011F0002E2E6AC061E881E00E94590481E8809344
:1012000000010DE211E039E6E32E31E0F32E45E571
:10121000C42E41E0D42EF8018491F701A490F60188
:10122000B490BB20C1F381110E94FF058B2D90E08B
:10123000880F991F885B9E4FFC01A591B4918C91FA
:10124000A82249F3C3CF2BAB3CAB4DAB5EAB0E94A6
:1012500094062BA93CA94DA95EA9DC01CB01821BF8
:10126000930BA40BB50B883E9340A105B10548F044
:10127000F1E08F1A9108A108B10828513C4F4F4F57
:101280005F4F81149104A104B104E9F68AE08983D7
:1012900081E08A838B831C826CE771E0CE01059626
:1012A0000E949C1201E082E992E00E94310218162D
:1012B0001906CCF00E94B906693873418105910581
:1012C00008F092C40E94BA0188E791E00E94F105FB
:1012D0000E9494069B01AC0184EF882E992493947C
:1012E000A12CB12CB0CF82E992E00E944902182FC4
:1012F00080914E0390914F03A0915003B091510300
:101300000196A11DB11D80934E0390934F03A093AE
:101310005003B0935103143209F4ACC2E091480376
:10132000153234F41A3071F01D3009F0B0C20AC021
:101330001A3241F01C3209F0AAC28091350381278C
:1013400080933503EF3008F074C1F0E0E95CFC4FA6
:10135000108280913603882309F46DC120913703F0
:101360003FEB320F822F022E000C990B363010F417
:10137000C79707C02156263018F48755910901C038
:10138000C097282F2295207F309138034FEB430FD1
:10139000832F032E000C990B463010F4C79707C01B
:1013A0003156363018F48755910901C0C097820F25
:1013B0009091350389132AC180915A0390915B0360
:1013C000A0915C03B0915D030196A11DB11D8093B6
:1013D0005A0390935B03A0935C03B0935D038091E9
:1013E0004903882399F08091520390915303A0916F
:1013F0005403B09155030196A11DB11D8093520372
:1014000090935303A0935403B0935503B0904603B5
:10141000BB2009F46BC081E0B812D0C08091D90222
:101420009091DA02A091DB02B091DC028093D502A8
:101430009093D602A093D702B093D8020E94B90627
:101440006093DD027093DE028093DF029093E002EE
:10145000B092D402B092D3028091E7029091E80258
:10146000A091E902B091EA028093E3029093E40232
:10147000A093E502B093E6020E94B9066093EB02E6
:101480007093EC028093ED029093EE02B092E20230
:10149000B092E10280914903882309F48FC0E1EC06
:1014A000F2E0A3EBB2E0832D01900D928A95E1F773
:1014B000E8ECF2E0AAEBB2E0832D01900D928A9560
:1014C000E1F70E94B9066093CF027093D002809337
:1014D000D1029093D202B092B202B092B1028FEEDA
:1014E00092E00E9458038DEF92E066C08091E7027F
:1014F0009091E802A091E902B091EA028093E302A0
:101500009093E402A093E502B093E6020E94B9062C
:101510006093EB027093EC028093ED029093EE02E5
:101520000093E2020093E10280914903882321F1B4
:10153000E1ECF2E0A3EBB2E0832D01900D928A95ED
:10154000E1F7E8ECF2E0AAEBB2E0832D01900D9216
:101550008A95E1F70E94B9066093CF027093D0029A
:101560008093D1029093D2020093B2020093B10211
:101570008BE093E00E945803809123039091240311
:10158000A0912503B091260380931F03909320031D
:10159000A0932103B09322030E94B90660931B031A
:1015A00070931C0380931D0390931E0300931A03F2
:1015B0000093190387E293E00E945803A0904C0324
:1015C000B0904D03A114B10409F442C1E0914C0361
:1015D000F0914D0366A177A1F50186A197A10E9424
:1015E0009312892B09F034C1B501C50140960E94C0
:1015F0009C120E94B906F50160A371A382A393A374
:1016000021E025A324A3A2A4B3A4DCCF8091560398
:1016100090915703A0915803B09159030196A11DD1
:10162000B11D8093560390935703A0935803B09332
:10163000590380E00EC190914703911145C069E8BC
:1016400071E087E393E00E949312892B41F06FE8E9
:1016500071E087E393E00E949312892B19F40093C1
:10166000460315C065E971E087E393E00E94931299
:10167000892B41F06BE971E087E393E00E949312BC
:10168000892B19F41092460302C0209246038091E0
:101690004A0390914B0390934D0380934C03A09089
:1016A0004C03B0904D03A114B10419F2F50186A0CA
:1016B00097A067E373E0C4010E94931297FFAAC248
:1016C000F50182A593A5E7CFE0914603E23009F446
:1016D00091C080913703882309F48CC020E2E29FF7
:1016E000F0011124E92B3197E932F10508F082C0AD
:1016F000EC5CFF4F0C94521287E393E00E94F703D7
:101700006093E7027093E8028093E9029093EA0203
:1017100071C091E0813409F043C043C061EC72E0D4
:1017200009C091E0833509F090E09093C70262C050
:1017300068EC72E087E393E00E946F035BC091E086
:10174000873509F090E09093CE0254C087E393E090
:101750000E94F7036093F9027093FA028093FB02F0
:101760009093FC0247C087E393E00E94F7036093E5
:101770000703709308038093090390930A033AC008
:1017800087E393E00E94940F6093D9027093DA028A
:101790008093DB029093DC022DC091E081330CF446
:1017A00090E09093490326C087E393E00E94940F52
:1017B000609323037093240380932503909326035F
:1017C00019C087E393E00E94F7036093310370939D
:1017D000320380933303909334030CC087E393E088
:1017E0000E94F70360931503709316038093170309
:1017F00090931803A0904C03B0904D03A114B10432
:1018000009F417CFE0914C03F0914D0366A177A145
:10181000F50186A197A10E949312892B09F009CFA7
:10182000F50120A531A58091470390E08217930729
:101830000CF4FFCE2817390739F440E150E067E394
:1018400073E0C5010E94A312F501A2A4B3A4D6CFF0
:1018500081E0909147039F5F909347031092480364
:1018600091E01A3209F090E090933603882309F44E
:101870001ACD21C0109248031092470310923503ED
:101880002092460310923603109249030CCDEE309D
:1018900040F481E08E0F80934803F0E0E95CFC4F58
:1018A0001083809136038111FECC80913503182777
:1018B00010933503F8CC86EF90E00E94AB04809142
:1018C000B102882309F457C01092B2026091B302AA
:1018D0007091B40280E090E00E94E3104B015C0143
:1018E0006091B5027091B6028091B7029091B802F2
:1018F0000E94E31028E23BE64EE65EE40E944210BE
:101900009B01AC01C501B4010E94D10F2091B90225
:101910002111905846E00E940D0584EF90E00E944E
:10192000AB041092B2026091BA027091BB0280E0E7
:1019300090E00E94E3104B015C016091BC02709149
:10194000BD028091BE029091BF020E94E31028E286
:101950003BE64EE65EE40E9442109B01AC01C501ED
:10196000B4010E94D10F2091C0022111905846E08D
:101970000E940D0504C08CEE90E00E94AB048EED39
:1019800090E00E94AB048091D302882309F44BC0FD
:101990001092D4026091D5027091D6028091D70244
:1019A0009091D802A70196010E943012CA01B90194
:1019B000A70196010E9430124AE00E94CC048CEDEF
:1019C00090E00E94AB041092D4026091D502709115
:1019D000D6028091D7029091D802A30192010E9471
:1019E0003012CA01B9017727882799274AE00E9457
:1019F000CC048AED90E00E94AB041092D402609176
:101A0000D5027091D6028091D7029091D802A70199
:101A100096010E9430126053784F80E090E04AE0D7
:101A20000E94CC0404C082ED90E00E94AB0480EDE3
:101A300090E00E94AB048091E102882309F4CBC0BE
:101A40001092E2026091E3027091E4028091E5025B
:101A50009091E60220E432E44FE050E00E94301220
:101A60002A3020F48EEC90E00E94AB041092E20247
:101A70006091E3027091E4028091E5029091E602A8
:101A800020E432E44FE050E00E943012CA01B90174
:101A90007727882799274AE00E94CC048CEC90E0B5
:101AA0000E94AB041092E2026091E3027091E402A2
:101AB0008091E5029091E602A30192010E9430120A
:101AC000CA01B901A70196010E9430126A3071055E
:101AD0008105910520F48AEC90E00E94AB041092FD
:101AE000E2026091E3027091E4028091E50290913C
:101AF000E602A30192010E943012CA01B901A701B6
:101B000096010E9430124AE00E94CC0488EC90E0DA
:101B10000E94AB041092E2026091E3027091E40231
:101B20008091E5029091E602A70196010E94301291
:101B3000CA01B901A70196010E9430126A307105ED
:101B40008105910520F486EC90E00E94AB04109290
:101B5000E2026091E3027091E4028091E5029091CB
:101B6000E602A70196010E943012CA01B901A7013D
:101B700096010E9430124AE00E94CC0484EC90E06E
:101B80000E94AB041092E2026091E3027091E402C1
:101B90008091E5029091E602A70196010E94301221
:101BA0006A3071058105910520F482EC90E00E9475
:101BB000AB041092E2026091E3027091E402809122
:101BC000E5029091E602A70196010E9430124AE0D8
:101BD0000E94CC0404C08AEB90E00E94AB0483E531
:101BE00091E00E9499045FCB80914E0390914F0346
:101BF000A0915003B09151030A97A105B10508F0D7
:101C000061CB81E091E00E94AB0483E591E00E940A
:101C10009904FFCF67E373E0C4010E949312181682
:101C200019060CF006CD10924D0310924C0301CD15
:101C300087E191E0909393028093920282E992E08F
:101C40000C9442031092F8011092F70188EE93E091
:101C5000A0E0B0E08093F9019093FA01A093FB011A
:101C6000B093FC0125E031E03093F6012093F501BB
:101C700025EC30E0309302022093010224EC30E0A6
:101C8000309304022093030220EC30E030930602EC
:101C90002093050221EC30E03093080220930702E4
:101CA00022EC30E030930A022093090226EC30E067
:101CB00030930C0220930B0210920E0210920F022E
:101CC00010921002109211021092B1021092B20200
:101CD0001092B4021092B3021092B5021092B602A2
:101CE0001092B7021092B8021092B9021092BB0281
:101CF0001092BA021092BC021092BD021092BE0263
:101D00001092BF021092C0021092C2021092C10241
:101D10001092C3021092C4021092C5021092C60221
:101D20001092C7021092C9021092C8021092CA0201
:101D30001092CB021092CC021092CD021092CE02E1
:101D40001092D3021092D4021092D5021092D602B1
:101D50001092D7021092D8021092E1021092E20281
:101D60001092E3021092E4021092E5021092E60251
:101D70001092EF021092F0021092F5021092F60209
:101D80001092F7021092F8021092FD021092FE02D9
:101D9000109203031092040310920503109206039D
:101DA00010920B0310920C03109211031092120365
:101DB00010921303109214031092190310921A0335
:101DC00010921F03109220031092210310922203FD
:101DD000109227031092280310922D0310922E03C5
:101DE00010922F0310923003109235031092360395
:101DF00022E020934603109247031092480310926A
:101E0000490310924B0310924A0310924D03109213
:101E10004C0310924E0310924F03109250031092F5
:101E200051031092520310925303109254031092D4
:101E300055031092560310925703109258031092B4
:101E4000590310925A0310925B0310925C03109294
:101E50005D031092370310929502109294028093C2
:101E6000960290939702A0939802B093990287E10B
:101E700091E090939302809392021092A9021092A3
:101E8000A8021092AB021092AA021092AD02109218
:101E9000AC021092AF021092AE026091B0026E7F5F
:101EA0006D7F6093B0026695617081E0682785E080
:101EB0000E94280661E085E00E945806EBE6F1E00A
:101EC000E491E093A202E7E5F1E0E491F0E0EE0FA7
:101ED000FF1FE25CFE4F859194919093A402809342
:101EE000A30260E084E00E9458068091B00281FD68
:101EF00004C061E084E00E94280684E080939E0292
:101F0000EAE6F1E0E491E0939F02E6E5F1E0E49196
:101F1000F0E0EE0FFF1FE85BFE4F859194919093E8
:101F2000A1028093A00208951F93FC01992788279E
:101F3000BC01E89411911032E9F3193010F01E3011
:101F4000C8F31B3251F01D3249F4689406C00E9458
:101F5000BB0F610F711D811D911D119110531A301E
:101F6000B0F33EF490958095709561957F4F8F4FBB
:101F70009F4F1F910895592F482F372F262F660FF7
:101F8000771F881F991F660F771F881F991F620F81
:101F9000731F841F951F660F771F881F991F089551
:101FA0005058BB27AA270E94E80F0C945B110E948F
:101FB0004D1138F00E94541120F039F49F3F19F46C
:101FC00026F40C944A110EF4E095E7FB0C944411AE
:101FD000E92F0E946C1158F3BA1762077307840740
:101FE000950720F079F4A6F50C948E110EF4E09587
:101FF0000B2EBA2FA02D0B01B90190010C01CA01C3
:10200000A0011124FF27591B99F0593F50F4503E6D
:1020100068F11A16F040A22F232F342F4427585F5F
:10202000F3CF469537952795A795F0405395C9F777
:102030007EF41F16BA0B620B730B840BBAF091502F
:10204000A1F0FF0FBB1F661F771F881FC2F70EC0CE
:10205000BA0F621F731F841F48F4879577956795A1
:10206000B795F7959E3F08F0B0CF9395880F08F08D
:102070009927EE0F9795879508950E94201108F4EF
:1020800081E008950E9456100C945B110E94541137
:1020900058F00E944D1140F029F45F3F29F00C9454
:1020A000441151110C948F110C944A110E946C111F
:1020B00068F39923B1F3552391F3951B550BBB2777
:1020C000AA2762177307840738F09F5F5F4F220FBC
:1020D000331F441FAA1FA9F335D00E2E3AF0E0E8B3
:1020E00032D091505040E695001CCAF72BD0FE2FFD
:1020F00029D0660F771F881FBB1F26173707480791
:10210000AB07B0E809F0BB0B802DBF01FF27935848
:102110005F4F3AF09E3F510578F00C9444110C94B7
:102120008F115F3FE4F3983ED4F3869577956795DA
:10213000B795F7959F5FC9F7880F911D969587957D
:1021400097F90895E1E0660F771F881FBB1F62179C
:1021500073078407BA0720F0621B730B840BBA0B5A
:10216000EE1F88F7E09508950E94741188F09F573C
:1021700098F0B92F9927B751B0F0E1F0660F771FAB
:10218000881F991F1AF0BA95C9F714C0B13091F0A1
:102190000E948E11B1E008950C948E11672F782F54
:1021A0008827B85F39F0B93FCCF386957795679566
:1021B000B395D9F73EF490958095709561957F4FD2
:1021C0008F4F9F4F0895E89409C097FB3EF4909578
:1021D0008095709561957F4F8F4F9F4F9923A9F000
:1021E000F92F96E9BB279395F6958795779567958F
:1021F000B795F111F8CFFAF4BB0F11F460FF1BC0D3
:102200006F5F7F4F8F4F9F4F16C0882311F096E965
:1022100011C0772321F09EE8872F762F05C0662313
:1022200071F096E8862F70E060E02AF09A95660FCC
:10223000771F881FDAF7880F9695879597F9089585
:10224000990F0008550FAA0BE0E8FEEF16161706C7
:10225000E807F907C0F012161306E407F50798F02F
:10226000621B730B840B950B39F40A2661F0232B48
:10227000242B252B21F408950A2609F4A140A695C4
:102280008FEF811D811D089597F99F6780E870E0A9
:1022900060E008959FEF80EC089500240A941616DC
:1022A000170618060906089500240A941216130644
:1022B000140605060895092E0394000C11F48823D2
:1022C00052F0BB0F40F4BF2B11F460FF04C06F5FEE
:1022D0007F4F8F4F9F4F089557FD9058440F551FC4
:1022E00059F05F3F71F04795880F97FB991F61F098
:1022F0009F3F79F087950895121613061406551F0F
:10230000F2CF4695F1DF08C0161617061806991F7A
:10231000F1CF86957105610508940895E894BB276F
:1023200066277727CB0197F908950E94201108F4BA
:102330008FEF08950E94AD110C945B110E944D1116
:1023400038F00E94541120F0952311F00C944411A0
:102350000C944A1111240C948F110E946C1170F38B
:10236000959FC1F3950F50E0551F629FF001729F3A
:10237000BB27F00DB11D639FAA27F00DB11DAA1F49
:10238000649F6627B00DA11D661F829F2227B00D96
:10239000A11D621F739FB00DA11D621F839FA00D21
:1023A000611D221F749F3327A00D611D231F849F71
:1023B000600D211D822F762F6A2F11249F575040C8
:1023C0009AF0F1F088234AF0EE0FFF1FBB1F661F43
:1023D000771F881F91505040A9F79E3F510580F00C
:1023E0000C9444110C948F115F3FE4F3983ED4F3A6
:1023F000869577956795B795F795E7959F5FC1F7B0
:10240000FE2B880F911D9695879597F908950E9448
:102410002011880B990B0895DB018F939F930E94E5
:102420005812BF91AF91A29F800D911DA39F900D57
:10243000B29F900D1124089597FB072E16F4009477
:1024400007D077FD09D00E946B1207FC05D03EF43F
:10245000909581959F4F0895709561957F4F089550
:10246000A1E21A2EAA1BBB1BFD010DC0AA1FBB1F98
:10247000EE1FFF1FA217B307E407F50720F0A21B0A
:10248000B30BE40BF50B661F771F881F991F1A9477
:1024900069F760957095809590959B01AC01BD01A1
:1024A000CF010895EE0FFF1F0590F491E02D0994E0
:1024B0000E947F12A59F900DB49F900DA49F800D48
:1024C000911D11240895B7FF0C9458120E945812C0
:1024D000821B930B0895AA1BBB1B51E107C0AA1FC7
:1024E000BB1FA617B70710F0A61BB70B881F991FB5
:1024F0005A95A9F780959095BC01CD010895A29FAA
:10250000B001B39FC001A39F700D811D1124911DC7
:10251000B29F700D811D1124911D089581E090E0FE
:10252000F8940C94B212FB01DC018D91019080199A
:102530000110D9F3990B0895FB01DC0101900D9274
:102540000020E1F70895FB01DC014150504048F0C4
:1025500001900D920020C9F701C01D9241505040DA
:10256000E0F7089510E0CEEBD0E004C0FE010E9439
:0E25700052122196CF3BD107C9F7F894FFCF46
:10257E00810000000051016E04E90098011A01F873
:10258E00000C0100000000DD016E046B02DC013165
:10259E00024902C40153657474696E67204C6F5210
:1025AE0061204D6F6465004C6F5261204D6F646504
:1025BE0020536574004672657175656E6379206986
:1025CE007320000D0A004672657175656E6379564B
:1025DE00616C7565206973200053657475702043B6
:1025EE006F6D706C65746500787878002448656C42
:1025FE006C6F20776F726C64004750524D430047EA
:10260E004E524D4300475047474100474E474741C2
:0E261E00006E616E00696E66006F76660000E9
:00000001FF
